{
  "contractName": "MultisigWallet",
  "abi": [
    {
      "inputs": [],
      "stateMutability": "nonpayable",
      "type": "constructor"
    },
    {
      "anonymous": false,
      "inputs": [
        {
          "indexed": true,
          "internalType": "address",
          "name": "owner",
          "type": "address"
        },
        {
          "indexed": true,
          "internalType": "uint256",
          "name": "txIndex",
          "type": "uint256"
        }
      ],
      "name": "CancelTransaction",
      "type": "event"
    },
    {
      "anonymous": false,
      "inputs": [
        {
          "indexed": true,
          "internalType": "address",
          "name": "owner",
          "type": "address"
        },
        {
          "indexed": true,
          "internalType": "uint256",
          "name": "txIndex",
          "type": "uint256"
        }
      ],
      "name": "ConfirmTransaction",
      "type": "event"
    },
    {
      "anonymous": false,
      "inputs": [
        {
          "indexed": true,
          "internalType": "address",
          "name": "ownerAddress",
          "type": "address"
        }
      ],
      "name": "CreateOwner",
      "type": "event"
    },
    {
      "anonymous": false,
      "inputs": [
        {
          "indexed": true,
          "internalType": "address",
          "name": "addressToken",
          "type": "address"
        },
        {
          "indexed": false,
          "internalType": "string",
          "name": "name",
          "type": "string"
        },
        {
          "indexed": false,
          "internalType": "string",
          "name": "symbol",
          "type": "string"
        },
        {
          "indexed": true,
          "internalType": "uint256",
          "name": "value",
          "type": "uint256"
        }
      ],
      "name": "CreateToken",
      "type": "event"
    },
    {
      "anonymous": false,
      "inputs": [
        {
          "indexed": true,
          "internalType": "address",
          "name": "sender",
          "type": "address"
        },
        {
          "indexed": false,
          "internalType": "uint256",
          "name": "amount",
          "type": "uint256"
        },
        {
          "indexed": false,
          "internalType": "uint256",
          "name": "balance",
          "type": "uint256"
        }
      ],
      "name": "Deposit",
      "type": "event"
    },
    {
      "anonymous": false,
      "inputs": [
        {
          "indexed": true,
          "internalType": "address",
          "name": "owner",
          "type": "address"
        },
        {
          "indexed": true,
          "internalType": "uint256",
          "name": "txIndex",
          "type": "uint256"
        }
      ],
      "name": "ExecuteTransaction",
      "type": "event"
    },
    {
      "anonymous": false,
      "inputs": [
        {
          "indexed": true,
          "internalType": "address",
          "name": "owner",
          "type": "address"
        },
        {
          "indexed": true,
          "internalType": "uint256",
          "name": "txIndex",
          "type": "uint256"
        }
      ],
      "name": "RevokeConfirmation",
      "type": "event"
    },
    {
      "anonymous": false,
      "inputs": [
        {
          "indexed": true,
          "internalType": "uint256",
          "name": "num",
          "type": "uint256"
        }
      ],
      "name": "SetNumConfirmation",
      "type": "event"
    },
    {
      "anonymous": false,
      "inputs": [
        {
          "indexed": true,
          "internalType": "address",
          "name": "owner",
          "type": "address"
        },
        {
          "indexed": true,
          "internalType": "uint256",
          "name": "txIndex",
          "type": "uint256"
        },
        {
          "indexed": true,
          "internalType": "address",
          "name": "to",
          "type": "address"
        },
        {
          "indexed": false,
          "internalType": "uint256",
          "name": "value",
          "type": "uint256"
        },
        {
          "indexed": false,
          "internalType": "bytes",
          "name": "data",
          "type": "bytes"
        },
        {
          "indexed": false,
          "internalType": "address",
          "name": "addressToken",
          "type": "address"
        },
        {
          "indexed": false,
          "internalType": "address",
          "name": "by",
          "type": "address"
        },
        {
          "indexed": false,
          "internalType": "bool",
          "name": "cancel",
          "type": "bool"
        }
      ],
      "name": "SubmitTransaction",
      "type": "event"
    },
    {
      "inputs": [
        {
          "internalType": "uint256",
          "name": "",
          "type": "uint256"
        },
        {
          "internalType": "address",
          "name": "",
          "type": "address"
        }
      ],
      "name": "isConfirmed",
      "outputs": [
        {
          "internalType": "bool",
          "name": "",
          "type": "bool"
        }
      ],
      "stateMutability": "view",
      "type": "function",
      "constant": true
    },
    {
      "inputs": [
        {
          "internalType": "address",
          "name": "",
          "type": "address"
        }
      ],
      "name": "isOwner",
      "outputs": [
        {
          "internalType": "bool",
          "name": "",
          "type": "bool"
        }
      ],
      "stateMutability": "view",
      "type": "function",
      "constant": true
    },
    {
      "inputs": [],
      "name": "numConfirmationsRequired",
      "outputs": [
        {
          "internalType": "uint256",
          "name": "",
          "type": "uint256"
        }
      ],
      "stateMutability": "view",
      "type": "function",
      "constant": true
    },
    {
      "inputs": [
        {
          "internalType": "uint256",
          "name": "",
          "type": "uint256"
        }
      ],
      "name": "owners",
      "outputs": [
        {
          "internalType": "address",
          "name": "",
          "type": "address"
        }
      ],
      "stateMutability": "view",
      "type": "function",
      "constant": true
    },
    {
      "inputs": [
        {
          "internalType": "uint256",
          "name": "",
          "type": "uint256"
        }
      ],
      "name": "token",
      "outputs": [
        {
          "internalType": "contract Token",
          "name": "",
          "type": "address"
        }
      ],
      "stateMutability": "view",
      "type": "function",
      "constant": true
    },
    {
      "inputs": [
        {
          "internalType": "uint256",
          "name": "",
          "type": "uint256"
        }
      ],
      "name": "transactions",
      "outputs": [
        {
          "internalType": "address",
          "name": "to",
          "type": "address"
        },
        {
          "internalType": "uint256",
          "name": "value",
          "type": "uint256"
        },
        {
          "internalType": "bytes",
          "name": "data",
          "type": "bytes"
        },
        {
          "internalType": "bool",
          "name": "executed",
          "type": "bool"
        },
        {
          "internalType": "uint256",
          "name": "numConfirmations",
          "type": "uint256"
        },
        {
          "internalType": "bool",
          "name": "cancel",
          "type": "bool"
        },
        {
          "internalType": "address",
          "name": "addressToken",
          "type": "address"
        },
        {
          "internalType": "address",
          "name": "by",
          "type": "address"
        }
      ],
      "stateMutability": "view",
      "type": "function",
      "constant": true
    },
    {
      "stateMutability": "payable",
      "type": "receive",
      "payable": true
    },
    {
      "inputs": [
        {
          "internalType": "address",
          "name": "_owner",
          "type": "address"
        }
      ],
      "name": "createOwner",
      "outputs": [],
      "stateMutability": "nonpayable",
      "type": "function"
    },
    {
      "inputs": [
        {
          "internalType": "uint256",
          "name": "_num",
          "type": "uint256"
        }
      ],
      "name": "addNumConfirmationsRequired",
      "outputs": [],
      "stateMutability": "nonpayable",
      "type": "function"
    },
    {
      "inputs": [
        {
          "internalType": "string",
          "name": "name",
          "type": "string"
        },
        {
          "internalType": "string",
          "name": "symbol",
          "type": "string"
        },
        {
          "internalType": "uint256",
          "name": "value",
          "type": "uint256"
        }
      ],
      "name": "createToken",
      "outputs": [
        {
          "internalType": "contract Token",
          "name": "",
          "type": "address"
        }
      ],
      "stateMutability": "nonpayable",
      "type": "function"
    },
    {
      "inputs": [
        {
          "internalType": "uint256",
          "name": "ind",
          "type": "uint256"
        }
      ],
      "name": "getToken",
      "outputs": [
        {
          "internalType": "address",
          "name": "addressToken",
          "type": "address"
        },
        {
          "internalType": "string",
          "name": "name",
          "type": "string"
        },
        {
          "internalType": "string",
          "name": "symbol",
          "type": "string"
        },
        {
          "internalType": "uint256",
          "name": "value",
          "type": "uint256"
        }
      ],
      "stateMutability": "view",
      "type": "function",
      "constant": true
    },
    {
      "inputs": [
        {
          "internalType": "address",
          "name": "_to",
          "type": "address"
        },
        {
          "internalType": "uint256",
          "name": "_value",
          "type": "uint256"
        },
        {
          "internalType": "bytes",
          "name": "_data",
          "type": "bytes"
        },
        {
          "internalType": "address",
          "name": "_addressToken",
          "type": "address"
        }
      ],
      "name": "submitTransaction",
      "outputs": [],
      "stateMutability": "nonpayable",
      "type": "function"
    },
    {
      "inputs": [
        {
          "internalType": "uint256",
          "name": "_txIndex",
          "type": "uint256"
        }
      ],
      "name": "confirmTransaction",
      "outputs": [],
      "stateMutability": "nonpayable",
      "type": "function"
    },
    {
      "inputs": [
        {
          "internalType": "uint256",
          "name": "_txIndex",
          "type": "uint256"
        }
      ],
      "name": "executeTransaction",
      "outputs": [],
      "stateMutability": "nonpayable",
      "type": "function"
    },
    {
      "inputs": [
        {
          "internalType": "uint256",
          "name": "_txIndex",
          "type": "uint256"
        }
      ],
      "name": "cancelTransaction",
      "outputs": [],
      "stateMutability": "nonpayable",
      "type": "function"
    },
    {
      "inputs": [
        {
          "internalType": "uint256",
          "name": "_txIndex",
          "type": "uint256"
        }
      ],
      "name": "revokeConfirmation",
      "outputs": [],
      "stateMutability": "nonpayable",
      "type": "function"
    },
    {
      "inputs": [],
      "name": "getTokenCount",
      "outputs": [
        {
          "internalType": "uint256",
          "name": "",
          "type": "uint256"
        }
      ],
      "stateMutability": "view",
      "type": "function",
      "constant": true
    },
    {
      "inputs": [],
      "name": "getOwners",
      "outputs": [
        {
          "internalType": "address[]",
          "name": "",
          "type": "address[]"
        }
      ],
      "stateMutability": "view",
      "type": "function",
      "constant": true
    },
    {
      "inputs": [],
      "name": "getTokens",
      "outputs": [
        {
          "internalType": "contract Token[]",
          "name": "",
          "type": "address[]"
        }
      ],
      "stateMutability": "view",
      "type": "function",
      "constant": true
    },
    {
      "inputs": [],
      "name": "getTransactionCount",
      "outputs": [
        {
          "internalType": "uint256",
          "name": "",
          "type": "uint256"
        }
      ],
      "stateMutability": "view",
      "type": "function",
      "constant": true
    },
    {
      "inputs": [
        {
          "internalType": "uint256",
          "name": "_txIndex",
          "type": "uint256"
        }
      ],
      "name": "getTransaction",
      "outputs": [
        {
          "internalType": "address",
          "name": "to",
          "type": "address"
        },
        {
          "internalType": "uint256",
          "name": "value",
          "type": "uint256"
        },
        {
          "internalType": "bytes",
          "name": "data",
          "type": "bytes"
        },
        {
          "internalType": "bool",
          "name": "executed",
          "type": "bool"
        },
        {
          "internalType": "uint256",
          "name": "numConfirmations",
          "type": "uint256"
        },
        {
          "internalType": "address",
          "name": "addressToken",
          "type": "address"
        },
        {
          "internalType": "address",
          "name": "by",
          "type": "address"
        },
        {
          "internalType": "bool",
          "name": "cancel",
          "type": "bool"
        }
      ],
      "stateMutability": "view",
      "type": "function",
      "constant": true
    }
  ],
  "bytecode": "0x608060405234801561001057600080fd5b5060018060003373ffffffffffffffffffffffffffffffffffffffff1673ffffffffffffffffffffffffffffffffffffffff16815260200190815260200160002060006101000a81548160ff0219169083151502179055506000339080600181540180825580915050600190039060005260206000200160009091909190916101000a81548173ffffffffffffffffffffffffffffffffffffffff021916908373ffffffffffffffffffffffffffffffffffffffff1602179055506001600281905550615362806100e26000396000f3fe6080604052600436106200013f5760003560e01c806378a8956711620000af578063aa6ca808116200006d578063aa6ca80814620004fe578063c01a8c84146200052e578063d0549b85146200055c578063e4b50cb8146200058c578063ee22610b14620005d35762000199565b806378a8956714620003e157806380f59a6514620004115780639ace38c21462000455578063a0e67e2b14620004a0578063a747e27514620004d05762000199565b80633380c0d811620000fd5780633380c0d814620002c857806333ea3dc814620002f657806354dcc3d3146200034157806357544291146200036f5780635b060530146200039d5762000199565b8063025e7c27146200019e578063044215c614620001e257806320ea8d8614620002265780632e7700f014620002545780632f54bf6e14620002845762000199565b3662000199573373ffffffffffffffffffffffffffffffffffffffff167f90890809c654f11d6e72a28fa60149770a0d11ec6c92319d6ceb2bb0a4ea1a1534476040516200018f929190620022ca565b60405180910390a2005b600080fd5b348015620001ab57600080fd5b50620001ca6004803603810190620001c491906200233c565b62000601565b604051620001d99190620023b3565b60405180910390f35b348015620001ef57600080fd5b506200020e60048036038101906200020891906200233c565b62000641565b6040516200021d91906200243b565b60405180910390f35b3480156200023357600080fd5b506200025260048036038101906200024c91906200233c565b62000681565b005b3480156200026157600080fd5b506200026c620009ea565b6040516200027b919062002458565b60405180910390f35b3480156200029157600080fd5b50620002b06004803603810190620002aa9190620024a6565b620009f7565b604051620002bf9190620024f5565b60405180910390f35b348015620002d557600080fd5b50620002f46004803603810190620002ee91906200233c565b62000a17565b005b3480156200030357600080fd5b506200032260048036038101906200031c91906200233c565b62000c7c565b60405162000338989796959493929190620025b6565b60405180910390f35b3480156200034e57600080fd5b506200036d6004803603810190620003679190620024a6565b62000e02565b005b3480156200037c57600080fd5b506200039b60048036038101906200039591906200279c565b62001093565b005b348015620003aa57600080fd5b50620003c96004803603810190620003c39190620028e1565b62001395565b604051620003d891906200243b565b60405180910390f35b348015620003ee57600080fd5b50620003f962001498565b60405162000408919062002458565b60405180910390f35b3480156200041e57600080fd5b506200043d60048036038101906200043791906200297b565b620014a5565b6040516200044c9190620024f5565b60405180910390f35b3480156200046257600080fd5b506200048160048036038101906200047b91906200233c565b620014d4565b60405162000497989796959493929190620029c2565b60405180910390f35b348015620004ad57600080fd5b50620004b862001637565b604051620004c7919062002b25565b60405180910390f35b348015620004dd57600080fd5b50620004fc6004803603810190620004f691906200233c565b620016c7565b005b3480156200050b57600080fd5b5062000516620017e5565b60405162000525919062002c06565b60405180910390f35b3480156200053b57600080fd5b506200055a60048036038101906200055491906200233c565b62001875565b005b3480156200056957600080fd5b506200057462001be1565b60405162000583919062002458565b60405180910390f35b3480156200059957600080fd5b50620005b86004803603810190620005b291906200233c565b62001be7565b604051620005ca949392919062002c87565b60405180910390f35b348015620005e057600080fd5b50620005ff6004803603810190620005f991906200233c565b62001f26565b005b600081815481106200061257600080fd5b906000526020600020016000915054906101000a900473ffffffffffffffffffffffffffffffffffffffff1681565b600381815481106200065257600080fd5b906000526020600020016000915054906101000a900473ffffffffffffffffffffffffffffffffffffffff1681565b600160003373ffffffffffffffffffffffffffffffffffffffff1673ffffffffffffffffffffffffffffffffffffffff16815260200190815260200160002060009054906101000a900460ff1662000710576040517f08c379a0000000000000000000000000000000000000000000000000000000008152600401620007079062002d32565b60405180910390fd5b8060058054905081106200075b576040517f08c379a0000000000000000000000000000000000000000000000000000000008152600401620007529062002da4565b60405180910390fd5b816005818154811062000773576200077262002dc6565b5b906000526020600020906007020160030160009054906101000a900460ff1615620007d5576040517f08c379a0000000000000000000000000000000000000000000000000000000008152600401620007cc9062002e45565b60405180910390fd5b8260058181548110620007ed57620007ec62002dc6565b5b906000526020600020906007020160050160009054906101000a900460ff16156200084f576040517f08c379a0000000000000000000000000000000000000000000000000000000008152600401620008469062002eb7565b60405180910390fd5b60006005858154811062000868576200086762002dc6565b5b906000526020600020906007020190506004600086815260200190815260200160002060003373ffffffffffffffffffffffffffffffffffffffff1673ffffffffffffffffffffffffffffffffffffffff16815260200190815260200160002060009054906101000a900460ff1662000918576040517f08c379a00000000000000000000000000000000000000000000000000000000081526004016200090f9062002f29565b60405180910390fd5b60018160040160008282546200092f919062002f7a565b9250508190555060006004600087815260200190815260200160002060003373ffffffffffffffffffffffffffffffffffffffff1673ffffffffffffffffffffffffffffffffffffffff16815260200190815260200160002060006101000a81548160ff021916908315150217905550843373ffffffffffffffffffffffffffffffffffffffff167ff0dca620e2e81f7841d07bcc105e1704fb01475b278a9d4c236e1c62945edd5560405160405180910390a35050505050565b6000600580549050905090565b60016020528060005260406000206000915054906101000a900460ff1681565b80600580549050811062000a62576040517f08c379a000000000000000000000000000000000000000000000000000000000815260040162000a599062002da4565b60405180910390fd5b816005818154811062000a7a5762000a7962002dc6565b5b906000526020600020906007020160030160009054906101000a900460ff161562000adc576040517f08c379a000000000000000000000000000000000000000000000000000000000815260040162000ad39062002e45565b60405180910390fd5b826005818154811062000af45762000af362002dc6565b5b906000526020600020906007020160050160009054906101000a900460ff161562000b56576040517f08c379a000000000000000000000000000000000000000000000000000000000815260040162000b4d9062002eb7565b60405180910390fd5b60006005858154811062000b6f5762000b6e62002dc6565b5b906000526020600020906007020190503373ffffffffffffffffffffffffffffffffffffffff168160060160009054906101000a900473ffffffffffffffffffffffffffffffffffffffff1673ffffffffffffffffffffffffffffffffffffffff161462000c14576040517f08c379a000000000000000000000000000000000000000000000000000000000815260040162000c0b9062003005565b60405180910390fd5b60018160050160006101000a81548160ff021916908315150217905550843373ffffffffffffffffffffffffffffffffffffffff167f219656daa31426b2b73bb7e0b6d238fe3bec954b7e3868f5dbb6209f2f9491ad60405160405180910390a35050505050565b600080606060008060008060008060058a8154811062000ca15762000ca062002dc6565b5b906000526020600020906007020190508060000160009054906101000a900473ffffffffffffffffffffffffffffffffffffffff168160010154826002018360030160009054906101000a900460ff1684600401548560050160019054906101000a900473ffffffffffffffffffffffffffffffffffffffff168660060160009054906101000a900473ffffffffffffffffffffffffffffffffffffffff168760050160009054906101000a900460ff1685805462000d609062003056565b80601f016020809104026020016040519081016040528092919081815260200182805462000d8e9062003056565b801562000ddf5780601f1062000db35761010080835404028352916020019162000ddf565b820191906000526020600020905b81548152906001019060200180831162000dc157829003601f168201915b505050505095509850985098509850985098509850985050919395975091939597565b600160003373ffffffffffffffffffffffffffffffffffffffff1673ffffffffffffffffffffffffffffffffffffffff16815260200190815260200160002060009054906101000a900460ff1662000e91576040517f08c379a000000000000000000000000000000000000000000000000000000000815260040162000e889062002d32565b60405180910390fd5b600073ffffffffffffffffffffffffffffffffffffffff168173ffffffffffffffffffffffffffffffffffffffff160362000f03576040517f08c379a000000000000000000000000000000000000000000000000000000000815260040162000efa90620030db565b60405180910390fd5b600160008273ffffffffffffffffffffffffffffffffffffffff1673ffffffffffffffffffffffffffffffffffffffff16815260200190815260200160002060009054906101000a900460ff161562000f93576040517f08c379a000000000000000000000000000000000000000000000000000000000815260040162000f8a906200314d565b60405180910390fd5b60018060008373ffffffffffffffffffffffffffffffffffffffff1673ffffffffffffffffffffffffffffffffffffffff16815260200190815260200160002060006101000a81548160ff0219169083151502179055506000819080600181540180825580915050600190039060005260206000200160009091909190916101000a81548173ffffffffffffffffffffffffffffffffffffffff021916908373ffffffffffffffffffffffffffffffffffffffff1602179055508073ffffffffffffffffffffffffffffffffffffffff167f5226d0ff94acd2b48c7a972e1e2fda16d35c7927b3171f5fed7f44284c7eb41560405160405180910390a250565b600160003373ffffffffffffffffffffffffffffffffffffffff1673ffffffffffffffffffffffffffffffffffffffff16815260200190815260200160002060009054906101000a900460ff1662001122576040517f08c379a0000000000000000000000000000000000000000000000000000000008152600401620011199062002d32565b60405180910390fd5b6000600580549050905060056040518061010001604052808773ffffffffffffffffffffffffffffffffffffffff168152602001868152602001858152602001600015158152602001600081526020016000151581526020018473ffffffffffffffffffffffffffffffffffffffff1681526020013373ffffffffffffffffffffffffffffffffffffffff16815250908060018154018082558091505060019003906000526020600020906007020160009091909190915060008201518160000160006101000a81548173ffffffffffffffffffffffffffffffffffffffff021916908373ffffffffffffffffffffffffffffffffffffffff16021790555060208201518160010155604082015181600201908162001242919062003337565b5060608201518160030160006101000a81548160ff0219169083151502179055506080820151816004015560a08201518160050160006101000a81548160ff02191690831515021790555060c08201518160050160016101000a81548173ffffffffffffffffffffffffffffffffffffffff021916908373ffffffffffffffffffffffffffffffffffffffff16021790555060e08201518160060160006101000a81548173ffffffffffffffffffffffffffffffffffffffff021916908373ffffffffffffffffffffffffffffffffffffffff16021790555050508473ffffffffffffffffffffffffffffffffffffffff16813373ffffffffffffffffffffffffffffffffffffffff167f77706a2e2ec218edd90cb63937fe3a6415d985380f37e3b0e3d4bf68e4ffd860878787336000604051620013869594939291906200341e565b60405180910390a45050505050565b600080848484604051620013a990620022a1565b620013b79392919062003482565b604051809103906000f080158015620013d4573d6000803e3d6000fd5b5090506003819080600181540180825580915050600190039060005260206000200160009091909190916101000a81548173ffffffffffffffffffffffffffffffffffffffff021916908373ffffffffffffffffffffffffffffffffffffffff160217905550828173ffffffffffffffffffffffffffffffffffffffff167faa935dad377a4856104bce276a1c3ab96aaaea5da44b184d31068ba47d1237a2878760405162001485929190620034cd565b60405180910390a3809150509392505050565b6000600380549050905090565b60046020528160005260406000206020528060005260406000206000915091509054906101000a900460ff1681565b60058181548110620014e557600080fd5b90600052602060002090600702016000915090508060000160009054906101000a900473ffffffffffffffffffffffffffffffffffffffff1690806001015490806002018054620015369062003056565b80601f0160208091040260200160405190810160405280929190818152602001828054620015649062003056565b8015620015b55780601f106200158957610100808354040283529160200191620015b5565b820191906000526020600020905b8154815290600101906020018083116200159757829003601f168201915b5050505050908060030160009054906101000a900460ff16908060040154908060050160009054906101000a900460ff16908060050160019054906101000a900473ffffffffffffffffffffffffffffffffffffffff16908060060160009054906101000a900473ffffffffffffffffffffffffffffffffffffffff16905088565b60606000805480602002602001604051908101604052809291908181526020018280548015620016bd57602002820191906000526020600020905b8160009054906101000a900473ffffffffffffffffffffffffffffffffffffffff1673ffffffffffffffffffffffffffffffffffffffff168152602001906001019080831162001672575b5050505050905090565b600160003373ffffffffffffffffffffffffffffffffffffffff1673ffffffffffffffffffffffffffffffffffffffff16815260200190815260200160002060009054906101000a900460ff1662001756576040517f08c379a00000000000000000000000000000000000000000000000000000000081526004016200174d9062002d32565b60405180910390fd5b80600080549050101580156200176c5750600081115b620017ae576040517f08c379a0000000000000000000000000000000000000000000000000000000008152600401620017a59062003558565b60405180910390fd5b80600281905550807f810134188a768f76dbd5645321df9ff349c00f77d567d6cdbe5358b49cd576a860405160405180910390a250565b606060038054806020026020016040519081016040528092919081815260200182805480156200186b57602002820191906000526020600020905b8160009054906101000a900473ffffffffffffffffffffffffffffffffffffffff1673ffffffffffffffffffffffffffffffffffffffff168152602001906001019080831162001820575b5050505050905090565b600160003373ffffffffffffffffffffffffffffffffffffffff1673ffffffffffffffffffffffffffffffffffffffff16815260200190815260200160002060009054906101000a900460ff1662001904576040517f08c379a0000000000000000000000000000000000000000000000000000000008152600401620018fb9062002d32565b60405180910390fd5b8060058054905081106200194f576040517f08c379a0000000000000000000000000000000000000000000000000000000008152600401620019469062002da4565b60405180910390fd5b816005818154811062001967576200196662002dc6565b5b906000526020600020906007020160030160009054906101000a900460ff1615620019c9576040517f08c379a0000000000000000000000000000000000000000000000000000000008152600401620019c09062002e45565b60405180910390fd5b826004600082815260200190815260200160002060003373ffffffffffffffffffffffffffffffffffffffff1673ffffffffffffffffffffffffffffffffffffffff16815260200190815260200160002060009054906101000a900460ff161562001a6b576040517f08c379a000000000000000000000000000000000000000000000000000000000815260040162001a6290620035ca565b60405180910390fd5b836005818154811062001a835762001a8262002dc6565b5b906000526020600020906007020160050160009054906101000a900460ff161562001ae5576040517f08c379a000000000000000000000000000000000000000000000000000000000815260040162001adc9062002eb7565b60405180910390fd5b60006005868154811062001afe5762001afd62002dc6565b5b90600052602060002090600702019050600181600401600082825462001b259190620035ec565b9250508190555060016004600088815260200190815260200160002060003373ffffffffffffffffffffffffffffffffffffffff1673ffffffffffffffffffffffffffffffffffffffff16815260200190815260200160002060006101000a81548160ff021916908315150217905550853373ffffffffffffffffffffffffffffffffffffffff167f5cbe105e36805f7820e291f799d5794ff948af2a5f664e580382defb6339004160405160405180910390a3505050505050565b60025481565b60006060806000806003868154811062001c065762001c0562002dc6565b5b9060005260206000200160009054906101000a900473ffffffffffffffffffffffffffffffffffffffff1673ffffffffffffffffffffffffffffffffffffffff1663767800de6040518163ffffffff1660e01b8152600401602060405180830381865afa15801562001c7c573d6000803e3d6000fd5b505050506040513d601f19601f8201168201806040525081019062001ca2919062003660565b90506003868154811062001cbb5762001cba62002dc6565b5b9060005260206000200160009054906101000a900473ffffffffffffffffffffffffffffffffffffffff1694506003868154811062001cff5762001cfe62002dc6565b5b9060005260206000200160009054906101000a900473ffffffffffffffffffffffffffffffffffffffff1673ffffffffffffffffffffffffffffffffffffffff166306fdde036040518163ffffffff1660e01b8152600401600060405180830381865afa15801562001d75573d6000803e3d6000fd5b505050506040513d6000823e3d601f19601f8201168201806040525081019062001da0919062003710565b93506003868154811062001db95762001db862002dc6565b5b9060005260206000200160009054906101000a900473ffffffffffffffffffffffffffffffffffffffff1673ffffffffffffffffffffffffffffffffffffffff166395d89b416040518163ffffffff1660e01b8152600401600060405180830381865afa15801562001e2f573d6000803e3d6000fd5b505050506040513d6000823e3d601f19601f8201168201806040525081019062001e5a919062003710565b92506003868154811062001e735762001e7262002dc6565b5b9060005260206000200160009054906101000a900473ffffffffffffffffffffffffffffffffffffffff1673ffffffffffffffffffffffffffffffffffffffff166370a08231826040518263ffffffff1660e01b815260040162001ed89190620023b3565b602060405180830381865afa15801562001ef6573d6000803e3d6000fd5b505050506040513d601f19601f8201168201806040525081019062001f1c919062003778565b9150509193509193565b600160003373ffffffffffffffffffffffffffffffffffffffff1673ffffffffffffffffffffffffffffffffffffffff16815260200190815260200160002060009054906101000a900460ff1662001fb5576040517f08c379a000000000000000000000000000000000000000000000000000000000815260040162001fac9062002d32565b60405180910390fd5b80600580549050811062002000576040517f08c379a000000000000000000000000000000000000000000000000000000000815260040162001ff79062002da4565b60405180910390fd5b816005818154811062002018576200201762002dc6565b5b906000526020600020906007020160030160009054906101000a900460ff16156200207a576040517f08c379a0000000000000000000000000000000000000000000000000000000008152600401620020719062002e45565b60405180910390fd5b826005818154811062002092576200209162002dc6565b5b906000526020600020906007020160050160009054906101000a900460ff1615620020f4576040517f08c379a0000000000000000000000000000000000000000000000000000000008152600401620020eb9062002eb7565b60405180910390fd5b6000600585815481106200210d576200210c62002dc6565b5b906000526020600020906007020190506002548160040154101562002169576040517f08c379a00000000000000000000000000000000000000000000000000000000081526004016200216090620037fa565b60405180910390fd5b60018160030160006101000a81548160ff0219169083151502179055508060050160019054906101000a900473ffffffffffffffffffffffffffffffffffffffff1673ffffffffffffffffffffffffffffffffffffffff1663a9059cbb8260000160009054906101000a900473ffffffffffffffffffffffffffffffffffffffff1683600101546040518363ffffffff1660e01b81526004016200220f9291906200381c565b6020604051808303816000875af11580156200222f573d6000803e3d6000fd5b505050506040513d601f19601f820116820180604052508101906200225591906200387a565b50843373ffffffffffffffffffffffffffffffffffffffff167f5445f318f4f5fcfb66592e68e0cc5822aa15664039bd5f0ffde24c5a8142b1ac60405160405180910390a35050505050565b611a8080620038ad83390190565b6000819050919050565b620022c481620022af565b82525050565b6000604082019050620022e16000830185620022b9565b620022f06020830184620022b9565b9392505050565b6000604051905090565b600080fd5b600080fd5b6200231681620022af565b81146200232257600080fd5b50565b60008135905062002336816200230b565b92915050565b60006020828403121562002355576200235462002301565b5b6000620023658482850162002325565b91505092915050565b600073ffffffffffffffffffffffffffffffffffffffff82169050919050565b60006200239b826200236e565b9050919050565b620023ad816200238e565b82525050565b6000602082019050620023ca6000830184620023a2565b92915050565b6000819050919050565b6000620023fb620023f5620023ef846200236e565b620023d0565b6200236e565b9050919050565b60006200240f82620023da565b9050919050565b6000620024238262002402565b9050919050565b620024358162002416565b82525050565b60006020820190506200245260008301846200242a565b92915050565b60006020820190506200246f6000830184620022b9565b92915050565b62002480816200238e565b81146200248c57600080fd5b50565b600081359050620024a08162002475565b92915050565b600060208284031215620024bf57620024be62002301565b5b6000620024cf848285016200248f565b91505092915050565b60008115159050919050565b620024ef81620024d8565b82525050565b60006020820190506200250c6000830184620024e4565b92915050565b600081519050919050565b600082825260208201905092915050565b60005b838110156200254e57808201518184015260208101905062002531565b838111156200255e576000848401525b50505050565b6000601f19601f8301169050919050565b6000620025828262002512565b6200258e81856200251d565b9350620025a08185602086016200252e565b620025ab8162002564565b840191505092915050565b600061010082019050620025ce600083018b620023a2565b620025dd602083018a620022b9565b8181036040830152620025f1818962002575565b9050620026026060830188620024e4565b620026116080830187620022b9565b6200262060a0830186620023a2565b6200262f60c0830185620023a2565b6200263e60e0830184620024e4565b9998505050505050505050565b600080fd5b600080fd5b7f4e487b7100000000000000000000000000000000000000000000000000000000600052604160045260246000fd5b6200268f8262002564565b810181811067ffffffffffffffff82111715620026b157620026b062002655565b5b80604052505050565b6000620026c6620022f7565b9050620026d4828262002684565b919050565b600067ffffffffffffffff821115620026f757620026f662002655565b5b620027028262002564565b9050602081019050919050565b82818337600083830152505050565b6000620027356200272f84620026d9565b620026ba565b90508281526020810184848401111562002754576200275362002650565b5b620027618482856200270f565b509392505050565b600082601f8301126200278157620027806200264b565b5b8135620027938482602086016200271e565b91505092915050565b60008060008060808587031215620027b957620027b862002301565b5b6000620027c9878288016200248f565b9450506020620027dc8782880162002325565b935050604085013567ffffffffffffffff8111156200280057620027ff62002306565b5b6200280e8782880162002769565b925050606062002821878288016200248f565b91505092959194509250565b600067ffffffffffffffff8211156200284b576200284a62002655565b5b620028568262002564565b9050602081019050919050565b60006200287a62002874846200282d565b620026ba565b90508281526020810184848401111562002899576200289862002650565b5b620028a68482856200270f565b509392505050565b600082601f830112620028c657620028c56200264b565b5b8135620028d884826020860162002863565b91505092915050565b600080600060608486031215620028fd57620028fc62002301565b5b600084013567ffffffffffffffff8111156200291e576200291d62002306565b5b6200292c86828701620028ae565b935050602084013567ffffffffffffffff81111562002950576200294f62002306565b5b6200295e86828701620028ae565b9250506040620029718682870162002325565b9150509250925092565b6000806040838503121562002995576200299462002301565b5b6000620029a58582860162002325565b9250506020620029b8858286016200248f565b9150509250929050565b600061010082019050620029da600083018b620023a2565b620029e9602083018a620022b9565b8181036040830152620029fd818962002575565b905062002a0e6060830188620024e4565b62002a1d6080830187620022b9565b62002a2c60a0830186620024e4565b62002a3b60c0830185620023a2565b62002a4a60e0830184620023a2565b9998505050505050505050565b600081519050919050565b600082825260208201905092915050565b6000819050602082019050919050565b62002a8e816200238e565b82525050565b600062002aa2838362002a83565b60208301905092915050565b6000602082019050919050565b600062002ac88262002a57565b62002ad4818562002a62565b935062002ae18362002a73565b8060005b8381101562002b1857815162002afc888262002a94565b975062002b098362002aae565b92505060018101905062002ae5565b5085935050505092915050565b6000602082019050818103600083015262002b41818462002abb565b905092915050565b600081519050919050565b6000819050602082019050919050565b62002b6f8162002416565b82525050565b600062002b83838362002b64565b60208301905092915050565b6000602082019050919050565b600062002ba98262002b49565b62002bb5818562002a62565b935062002bc28362002b54565b8060005b8381101562002bf957815162002bdd888262002b75565b975062002bea8362002b8f565b92505060018101905062002bc6565b5085935050505092915050565b6000602082019050818103600083015262002c22818462002b9c565b905092915050565b600081519050919050565b600082825260208201905092915050565b600062002c538262002c2a565b62002c5f818562002c35565b935062002c718185602086016200252e565b62002c7c8162002564565b840191505092915050565b600060808201905062002c9e6000830187620023a2565b818103602083015262002cb2818662002c46565b9050818103604083015262002cc8818562002c46565b905062002cd96060830184620022b9565b95945050505050565b7f6e6f74206f776e65720000000000000000000000000000000000000000000000600082015250565b600062002d1a60098362002c35565b915062002d278262002ce2565b602082019050919050565b6000602082019050818103600083015262002d4d8162002d0b565b9050919050565b7f747820646f6573206e6f74206578697374000000000000000000000000000000600082015250565b600062002d8c60118362002c35565b915062002d998262002d54565b602082019050919050565b6000602082019050818103600083015262002dbf8162002d7d565b9050919050565b7f4e487b7100000000000000000000000000000000000000000000000000000000600052603260045260246000fd5b7f747820616c726561647920657865637574656400000000000000000000000000600082015250565b600062002e2d60138362002c35565b915062002e3a8262002df5565b602082019050919050565b6000602082019050818103600083015262002e608162002e1e565b9050919050565b7f747820616c72656164792063616e63656c656400000000000000000000000000600082015250565b600062002e9f60138362002c35565b915062002eac8262002e67565b602082019050919050565b6000602082019050818103600083015262002ed28162002e90565b9050919050565b7f7478206e6f7420636f6e6669726d656400000000000000000000000000000000600082015250565b600062002f1160108362002c35565b915062002f1e8262002ed9565b602082019050919050565b6000602082019050818103600083015262002f448162002f02565b9050919050565b7f4e487b7100000000000000000000000000000000000000000000000000000000600052601160045260246000fd5b600062002f8782620022af565b915062002f9483620022af565b92508282101562002faa5762002fa962002f4b565b5b828203905092915050565b7f6e6f742063726561746f72207472616e73616374696f6e000000000000000000600082015250565b600062002fed60178362002c35565b915062002ffa8262002fb5565b602082019050919050565b60006020820190508181036000830152620030208162002fde565b9050919050565b7f4e487b7100000000000000000000000000000000000000000000000000000000600052602260045260246000fd5b600060028204905060018216806200306f57607f821691505b60208210810362003085576200308462003027565b5b50919050565b7f6161616100000000000000000000000000000000000000000000000000000000600082015250565b6000620030c360048362002c35565b9150620030d0826200308b565b602082019050919050565b60006020820190508181036000830152620030f681620030b4565b9050919050565b7f616c726561647920746865206f776e6572000000000000000000000000000000600082015250565b60006200313560118362002c35565b91506200314282620030fd565b602082019050919050565b60006020820190508181036000830152620031688162003126565b9050919050565b60008190508160005260206000209050919050565b60006020601f8301049050919050565b600082821b905092915050565b600060088302620031d37fffffffffffffffffffffffffffffffffffffffffffffffffffffffffffffffff8262003194565b620031df868362003194565b95508019841693508086168417925050509392505050565b600062003218620032126200320c84620022af565b620023d0565b620022af565b9050919050565b6000819050919050565b6200323483620031f7565b6200324c62003243826200321f565b848454620031a1565b825550505050565b600090565b6200326362003254565b6200327081848462003229565b505050565b5b8181101562003298576200328c60008262003259565b60018101905062003276565b5050565b601f821115620032e757620032b1816200316f565b620032bc8462003184565b81016020851015620032cc578190505b620032e4620032db8562003184565b83018262003275565b50505b505050565b600082821c905092915050565b60006200330c60001984600802620032ec565b1980831691505092915050565b6000620033278383620032f9565b9150826002028217905092915050565b620033428262002512565b67ffffffffffffffff8111156200335e576200335d62002655565b5b6200336a825462003056565b620033778282856200329c565b600060209050601f831160018114620033af57600084156200339a578287015190505b620033a6858262003319565b86555062003416565b601f198416620033bf866200316f565b60005b82811015620033e957848901518255600182019150602085019450602081019050620033c2565b8683101562003409578489015162003405601f891682620032f9565b8355505b6001600288020188555050505b505050505050565b600060a082019050620034356000830188620022b9565b818103602083015262003449818762002575565b90506200345a6040830186620023a2565b620034696060830185620023a2565b620034786080830184620024e4565b9695505050505050565b600060608201905081810360008301526200349e818662002c46565b90508181036020830152620034b4818562002c46565b9050620034c56040830184620022b9565b949350505050565b60006040820190508181036000830152620034e9818562002c46565b90508181036020830152620034ff818462002c46565b90509392505050565b7f203c206f776e6572730000000000000000000000000000000000000000000000600082015250565b60006200354060098362002c35565b91506200354d8262003508565b602082019050919050565b60006020820190508181036000830152620035738162003531565b9050919050565b7f747820616c726561647920636f6e6669726d6564000000000000000000000000600082015250565b6000620035b260148362002c35565b9150620035bf826200357a565b602082019050919050565b60006020820190508181036000830152620035e581620035a3565b9050919050565b6000620035f982620022af565b91506200360683620022af565b9250827fffffffffffffffffffffffffffffffffffffffffffffffffffffffffffffffff038211156200363e576200363d62002f4b565b5b828201905092915050565b6000815190506200365a8162002475565b92915050565b60006020828403121562003679576200367862002301565b5b6000620036898482850162003649565b91505092915050565b6000620036a9620036a3846200282d565b620026ba565b905082815260208101848484011115620036c857620036c762002650565b5b620036d58482856200252e565b509392505050565b600082601f830112620036f557620036f46200264b565b5b81516200370784826020860162003692565b91505092915050565b60006020828403121562003729576200372862002301565b5b600082015167ffffffffffffffff8111156200374a576200374962002306565b5b6200375884828501620036dd565b91505092915050565b60008151905062003772816200230b565b92915050565b60006020828403121562003791576200379062002301565b5b6000620037a18482850162003761565b91505092915050565b7f63616e6e6f742065786563757465207478000000000000000000000000000000600082015250565b6000620037e260118362002c35565b9150620037ef82620037aa565b602082019050919050565b600060208201905081810360008301526200381581620037d3565b9050919050565b6000604082019050620038336000830185620023a2565b620038426020830184620022b9565b9392505050565b6200385481620024d8565b81146200386057600080fd5b50565b600081519050620038748162003849565b92915050565b60006020828403121562003893576200389262002301565b5b6000620038a38482850162003863565b9150509291505056fe60806040523480156200001157600080fd5b5060405162001a8038038062001a80833981810160405281019062000037919062000394565b81600290816200004891906200066f565b5082600390816200005a91906200066f565b506000600460006101000a81548160ff021916908360ff1602179055508060058190555033600660006101000a81548173ffffffffffffffffffffffffffffffffffffffff021916908373ffffffffffffffffffffffffffffffffffffffff16021790555060055460076000600660009054906101000a900473ffffffffffffffffffffffffffffffffffffffff1673ffffffffffffffffffffffffffffffffffffffff1673ffffffffffffffffffffffffffffffffffffffff16815260200190815260200160002081905550600660009054906101000a900473ffffffffffffffffffffffffffffffffffffffff1673ffffffffffffffffffffffffffffffffffffffff16600073ffffffffffffffffffffffffffffffffffffffff167fddf252ad1be2c89b69c2b068fc378daa952ba7f163c4a11628f55a4df523b3ef600554604051620001ab919062000767565b60405180910390a350505062000784565b6000604051905090565b600080fd5b600080fd5b600080fd5b600080fd5b6000601f19601f8301169050919050565b7f4e487b7100000000000000000000000000000000000000000000000000000000600052604160045260246000fd5b6200022582620001da565b810181811067ffffffffffffffff82111715620002475762000246620001eb565b5b80604052505050565b60006200025c620001bc565b90506200026a82826200021a565b919050565b600067ffffffffffffffff8211156200028d576200028c620001eb565b5b6200029882620001da565b9050602081019050919050565b60005b83811015620002c5578082015181840152602081019050620002a8565b83811115620002d5576000848401525b50505050565b6000620002f2620002ec846200026f565b62000250565b905082815260208101848484011115620003115762000310620001d5565b5b6200031e848285620002a5565b509392505050565b600082601f8301126200033e576200033d620001d0565b5b815162000350848260208601620002db565b91505092915050565b6000819050919050565b6200036e8162000359565b81146200037a57600080fd5b50565b6000815190506200038e8162000363565b92915050565b600080600060608486031215620003b057620003af620001c6565b5b600084015167ffffffffffffffff811115620003d157620003d0620001cb565b5b620003df8682870162000326565b935050602084015167ffffffffffffffff811115620004035762000402620001cb565b5b620004118682870162000326565b925050604062000424868287016200037d565b9150509250925092565b600081519050919050565b7f4e487b7100000000000000000000000000000000000000000000000000000000600052602260045260246000fd5b600060028204905060018216806200048157607f821691505b60208210810362000497576200049662000439565b5b50919050565b60008190508160005260206000209050919050565b60006020601f8301049050919050565b600082821b905092915050565b600060088302620005017fffffffffffffffffffffffffffffffffffffffffffffffffffffffffffffffff82620004c2565b6200050d8683620004c2565b95508019841693508086168417925050509392505050565b6000819050919050565b6000620005506200054a620005448462000359565b62000525565b62000359565b9050919050565b6000819050919050565b6200056c836200052f565b620005846200057b8262000557565b848454620004cf565b825550505050565b600090565b6200059b6200058c565b620005a881848462000561565b505050565b5b81811015620005d057620005c460008262000591565b600181019050620005ae565b5050565b601f8211156200061f57620005e9816200049d565b620005f484620004b2565b8101602085101562000604578190505b6200061c6200061385620004b2565b830182620005ad565b50505b505050565b600082821c905092915050565b6000620006446000198460080262000624565b1980831691505092915050565b60006200065f838362000631565b9150826002028217905092915050565b6200067a826200042e565b67ffffffffffffffff811115620006965762000695620001eb565b5b620006a2825462000468565b620006af828285620005d4565b600060209050601f831160018114620006e75760008415620006d2578287015190505b620006de858262000651565b8655506200074e565b601f198416620006f7866200049d565b60005b828110156200072157848901518255600182019150602085019450602081019050620006fa565b868310156200074157848901516200073d601f89168262000631565b8355505b6001600288020188555050505b505050505050565b620007618162000359565b82525050565b60006020820190506200077e600083018462000756565b92915050565b6112ec80620007946000396000f3fe608060405234801561001057600080fd5b50600436106101375760003560e01c8063767800de116100b8578063a9059cbb1161007c578063a9059cbb14610344578063b09f126614610374578063d28d885214610392578063d4ee1d90146103b0578063dd62ed3e146103ce578063f2fde38b146103fe57610137565b8063767800de146102b057806379ba5097146102ce5780638da5cb5b146102d857806395d89b41146102f6578063a0712d681461031457610137565b8063313ce567116100ff578063313ce567146101f65780633eaaf86b1461021457806347298f8214610232578063578ec33f1461026257806370a082311461028057610137565b806306fdde031461013c578063095ea7b31461015a57806318160ddd1461018a57806323b872dd146101a85780632f0e3120146101d8575b600080fd5b61014461041a565b6040516101519190610ef4565b60405180910390f35b610174600480360381019061016f9190610faf565b6104ac565b604051610181919061100a565b60405180910390f35b61019261051d565b60405161019f9190611034565b60405180910390f35b6101c260048036038101906101bd919061104f565b610527565b6040516101cf919061100a565b60405180910390f35b6101e0610691565b6040516101ed91906110be565b60405180910390f35b6101fe6106a4565b60405161020b91906110be565b60405180910390f35b61021c6106bb565b6040516102299190611034565b60405180910390f35b61024c60048036038101906102479190610faf565b6106c1565b604051610259919061100a565b60405180910390f35b61026a61087f565b60405161027791906110e8565b60405180910390f35b61029a60048036038101906102959190611103565b6108a5565b6040516102a79190611034565b60405180910390f35b6102b86108ee565b6040516102c591906110e8565b60405180910390f35b6102d6610918565b005b6102e0610ab4565b6040516102ed91906110e8565b60405180910390f35b6102fe610ad8565b60405161030b9190610ef4565b60405180910390f35b61032e60048036038101906103299190611130565b610b6a565b60405161033b919061100a565b60405180910390f35b61035e60048036038101906103599190610faf565b610c60565b60405161036b919061100a565b60405180910390f35b61037c610c75565b6040516103899190610ef4565b60405180910390f35b61039a610d03565b6040516103a79190610ef4565b60405180910390f35b6103b8610d91565b6040516103c591906110e8565b60405180910390f35b6103e860048036038101906103e3919061115d565b610db7565b6040516103f59190611034565b60405180910390f35b61041860048036038101906104139190611103565b610dbf565b005b606060038054610429906111cc565b80601f0160208091040260200160405190810160405280929190818152602001828054610455906111cc565b80156104a25780601f10610477576101008083540402835291602001916104a2565b820191906000526020600020905b81548152906001019060200180831161048557829003601f168201915b5050505050905090565b60008273ffffffffffffffffffffffffffffffffffffffff163373ffffffffffffffffffffffffffffffffffffffff167f8c5be1e5ebec7d5bd14f71427d1e84f3dd0314c0f7b2291e5b200ac8c7c3b9258460405161050b9190611034565b60405180910390a36001905092915050565b6000600554905090565b600081600760008673ffffffffffffffffffffffffffffffffffffffff1673ffffffffffffffffffffffffffffffffffffffff16815260200190815260200160002054101561057557600080fd5b81600760008673ffffffffffffffffffffffffffffffffffffffff1673ffffffffffffffffffffffffffffffffffffffff16815260200190815260200160002060008282546105c4919061122c565b9250508190555081600760008573ffffffffffffffffffffffffffffffffffffffff1673ffffffffffffffffffffffffffffffffffffffff168152602001908152602001600020600082825461061a9190611260565b925050819055508273ffffffffffffffffffffffffffffffffffffffff168473ffffffffffffffffffffffffffffffffffffffff167fddf252ad1be2c89b69c2b068fc378daa952ba7f163c4a11628f55a4df523b3ef8460405161067e9190611034565b60405180910390a3600190509392505050565b600460009054906101000a900460ff1681565b6000600460009054906101000a900460ff16905090565b60055481565b6000600660009054906101000a900473ffffffffffffffffffffffffffffffffffffffff1673ffffffffffffffffffffffffffffffffffffffff163373ffffffffffffffffffffffffffffffffffffffff161461071d57600080fd5b81600760008573ffffffffffffffffffffffffffffffffffffffff1673ffffffffffffffffffffffffffffffffffffffff16815260200190815260200160002054106107d75781600760008573ffffffffffffffffffffffffffffffffffffffff1673ffffffffffffffffffffffffffffffffffffffff16815260200190815260200160002060008282546107b2919061122c565b9250508190555081600560008282546107cb919061122c565b92505081905550610875565b600760008473ffffffffffffffffffffffffffffffffffffffff1673ffffffffffffffffffffffffffffffffffffffff1681526020019081526020016000205460056000828254610828919061122c565b925050819055506000600760008573ffffffffffffffffffffffffffffffffffffffff1673ffffffffffffffffffffffffffffffffffffffff168152602001908152602001600020819055505b6001905092915050565b600660009054906101000a900473ffffffffffffffffffffffffffffffffffffffff1681565b6000600760008373ffffffffffffffffffffffffffffffffffffffff1673ffffffffffffffffffffffffffffffffffffffff168152602001908152602001600020549050919050565b6000600660009054906101000a900473ffffffffffffffffffffffffffffffffffffffff16905090565b600160009054906101000a900473ffffffffffffffffffffffffffffffffffffffff1673ffffffffffffffffffffffffffffffffffffffff163373ffffffffffffffffffffffffffffffffffffffff161461097257600080fd5b600160009054906101000a900473ffffffffffffffffffffffffffffffffffffffff1673ffffffffffffffffffffffffffffffffffffffff1660008054906101000a900473ffffffffffffffffffffffffffffffffffffffff1673ffffffffffffffffffffffffffffffffffffffff167f8be0079c531659141344cd1fd0a4f28419497f9722a3daafe3b4186f6b6457e060405160405180910390a3600160009054906101000a900473ffffffffffffffffffffffffffffffffffffffff166000806101000a81548173ffffffffffffffffffffffffffffffffffffffff021916908373ffffffffffffffffffffffffffffffffffffffff1602179055506000600160006101000a81548173ffffffffffffffffffffffffffffffffffffffff021916908373ffffffffffffffffffffffffffffffffffffffff160217905550565b60008054906101000a900473ffffffffffffffffffffffffffffffffffffffff1681565b606060028054610ae7906111cc565b80601f0160208091040260200160405190810160405280929190818152602001828054610b13906111cc565b8015610b605780601f10610b3557610100808354040283529160200191610b60565b820191906000526020600020905b815481529060010190602001808311610b4357829003601f168201915b5050505050905090565b6000600660009054906101000a900473ffffffffffffffffffffffffffffffffffffffff1673ffffffffffffffffffffffffffffffffffffffff163373ffffffffffffffffffffffffffffffffffffffff1614610bc657600080fd5b8160076000600660009054906101000a900473ffffffffffffffffffffffffffffffffffffffff1673ffffffffffffffffffffffffffffffffffffffff1673ffffffffffffffffffffffffffffffffffffffff1681526020019081526020016000206000828254610c379190611260565b925050819055508160056000828254610c509190611260565b9250508190555060019050919050565b6000610c6d338484610527565b905092915050565b60028054610c82906111cc565b80601f0160208091040260200160405190810160405280929190818152602001828054610cae906111cc565b8015610cfb5780601f10610cd057610100808354040283529160200191610cfb565b820191906000526020600020905b815481529060010190602001808311610cde57829003601f168201915b505050505081565b60038054610d10906111cc565b80601f0160208091040260200160405190810160405280929190818152602001828054610d3c906111cc565b8015610d895780601f10610d5e57610100808354040283529160200191610d89565b820191906000526020600020905b815481529060010190602001808311610d6c57829003601f168201915b505050505081565b600160009054906101000a900473ffffffffffffffffffffffffffffffffffffffff1681565b600092915050565b60008054906101000a900473ffffffffffffffffffffffffffffffffffffffff1673ffffffffffffffffffffffffffffffffffffffff163373ffffffffffffffffffffffffffffffffffffffff1614610e1757600080fd5b80600160006101000a81548173ffffffffffffffffffffffffffffffffffffffff021916908373ffffffffffffffffffffffffffffffffffffffff16021790555050565b600081519050919050565b600082825260208201905092915050565b60005b83811015610e95578082015181840152602081019050610e7a565b83811115610ea4576000848401525b50505050565b6000601f19601f8301169050919050565b6000610ec682610e5b565b610ed08185610e66565b9350610ee0818560208601610e77565b610ee981610eaa565b840191505092915050565b60006020820190508181036000830152610f0e8184610ebb565b905092915050565b600080fd5b600073ffffffffffffffffffffffffffffffffffffffff82169050919050565b6000610f4682610f1b565b9050919050565b610f5681610f3b565b8114610f6157600080fd5b50565b600081359050610f7381610f4d565b92915050565b6000819050919050565b610f8c81610f79565b8114610f9757600080fd5b50565b600081359050610fa981610f83565b92915050565b60008060408385031215610fc657610fc5610f16565b5b6000610fd485828601610f64565b9250506020610fe585828601610f9a565b9150509250929050565b60008115159050919050565b61100481610fef565b82525050565b600060208201905061101f6000830184610ffb565b92915050565b61102e81610f79565b82525050565b60006020820190506110496000830184611025565b92915050565b60008060006060848603121561106857611067610f16565b5b600061107686828701610f64565b935050602061108786828701610f64565b925050604061109886828701610f9a565b9150509250925092565b600060ff82169050919050565b6110b8816110a2565b82525050565b60006020820190506110d360008301846110af565b92915050565b6110e281610f3b565b82525050565b60006020820190506110fd60008301846110d9565b92915050565b60006020828403121561111957611118610f16565b5b600061112784828501610f64565b91505092915050565b60006020828403121561114657611145610f16565b5b600061115484828501610f9a565b91505092915050565b6000806040838503121561117457611173610f16565b5b600061118285828601610f64565b925050602061119385828601610f64565b9150509250929050565b7f4e487b7100000000000000000000000000000000000000000000000000000000600052602260045260246000fd5b600060028204905060018216806111e457607f821691505b6020821081036111f7576111f661119d565b5b50919050565b7f4e487b7100000000000000000000000000000000000000000000000000000000600052601160045260246000fd5b600061123782610f79565b915061124283610f79565b925082821015611255576112546111fd565b5b828203905092915050565b600061126b82610f79565b915061127683610f79565b9250827fffffffffffffffffffffffffffffffffffffffffffffffffffffffffffffffff038211156112ab576112aa6111fd565b5b82820190509291505056fea2646970667358221220a12ff3a3f9fba71c89b811b3779f8d2ef7f1f7150e4caf8831aca4e1ffe422db64736f6c634300080f0033a2646970667358221220a61639b5369756d036dd840f1819c4a4a4e7fafb773bec8afb9212fc2d350d0364736f6c634300080f0033",
  "immutableReferences": {},
  "source": "// SPDX-License-Identifier: MIT\r\npragma solidity ^0.8.13;\r\n\r\nimport \"./token.sol\";\r\n\r\ncontract MultisigWallet {\r\n    event Deposit(address indexed sender, uint amount, uint balance);\r\n    event SubmitTransaction(\r\n        address indexed owner,\r\n        uint indexed txIndex,\r\n        address indexed to,\r\n        uint value,\r\n        bytes data,\r\n        address addressToken,\r\n        address by,\r\n        bool cancel\r\n    );\r\n    event ConfirmTransaction(address indexed owner, uint indexed txIndex);\r\n    event RevokeConfirmation(address indexed owner, uint indexed txIndex);\r\n    event ExecuteTransaction(address indexed owner, uint indexed txIndex);\r\n    event CancelTransaction(address indexed owner, uint indexed txIndex);\r\n    event SetNumConfirmation(uint indexed num);\r\n    event CreateToken(address indexed addressToken, string name, string symbol, uint indexed value);\r\n    event CreateOwner(address indexed ownerAddress);\r\n\r\n    address[] public owners;\r\n    mapping(address => bool) public isOwner;\r\n    uint public numConfirmationsRequired;\r\n\r\n    Token[] public token;\r\n\r\n    struct Transaction {\r\n        address to;\r\n        uint value;\r\n        bytes data;\r\n        bool executed;\r\n        uint numConfirmations;\r\n        bool cancel;\r\n        address addressToken;\r\n        address by;\r\n    }\r\n\r\n    mapping(uint => mapping(address => bool)) public isConfirmed;\r\n\r\n    Transaction[] public transactions;\r\n    constructor (){\r\n        isOwner[msg.sender] = true;\r\n        owners.push(msg.sender);\r\n        numConfirmationsRequired = 1;\r\n    }\r\n\r\n    modifier onlyOwner() {\r\n        require(isOwner[msg.sender], \"not owner\");\r\n        _;\r\n    }\r\n\r\n    modifier txExists(uint _txIndex) {\r\n        require(_txIndex < transactions.length, \"tx does not exist\");\r\n        _;\r\n    }\r\n\r\n    modifier notExecuted(uint _txIndex) {\r\n        require(!transactions[_txIndex].executed, \"tx already executed\");\r\n        _;\r\n    }\r\n\r\n    modifier notConfirmed(uint _txIndex) {\r\n        require(!isConfirmed[_txIndex][msg.sender], \"tx already confirmed\");\r\n        _;\r\n    }\r\n    modifier ownTrans(uint _txIndex) {\r\n        require(transactions[_txIndex].by == msg.sender, \"not the creator of the transaction\");\r\n        _;\r\n    }\r\n    modifier notCancel(uint _txIndex) {\r\n        require(!transactions[_txIndex].cancel, \"tx already canceled\");\r\n        _;\r\n    }\r\n\r\n    function createOwner(address _owner) public onlyOwner {\r\n        require(_owner != address(0), \"aaaa\");\r\n        require(!isOwner[_owner], \"already the owner\");\r\n        isOwner[_owner] = true;\r\n        owners.push(_owner);\r\n        emit CreateOwner(_owner);\r\n    }\r\n\r\n    function addNumConfirmationsRequired(uint _num) public onlyOwner {\r\n        require(owners.length >= _num && _num > 0, \" < owners\");\r\n        numConfirmationsRequired = _num;\r\n        emit SetNumConfirmation(_num);\r\n    }\r\n\r\n    function createToken(string memory name, string memory symbol, uint value) public returns (Token) {\r\n        Token toke = new Token(name, symbol, value);\r\n        token.push(toke);\r\n        emit CreateToken(address(toke),name,symbol,value);\r\n        return toke;\r\n\r\n    }\r\n\r\n    function getToken(uint ind) public view returns (address addressToken, string memory name, string memory symbol, uint value) {\r\n        address x = Token(token[ind]).addr();\r\n        addressToken = address(token[ind]);\r\n        name = Token(token[ind]).name();\r\n        symbol = Token(token[ind]).symbol();\r\n        value = Token(token[ind]).balanceOf(x);\r\n    }\r\n\r\n    receive() external payable {\r\n        emit Deposit(msg.sender, msg.value, address(this).balance);\r\n    }\r\n\r\n    function submitTransaction(\r\n        address _to,\r\n        uint _value,\r\n        bytes memory _data,\r\n        address _addressToken\r\n    ) public onlyOwner {\r\n        uint txIndex = transactions.length;\r\n\r\n        transactions.push(Transaction({\r\n        to : _to,\r\n        value : _value,\r\n        data : _data,\r\n        executed : false,\r\n        numConfirmations : 0,\r\n        cancel : false,\r\n        by : msg.sender,\r\n        addressToken : _addressToken\r\n        })\r\n        );\r\n\r\n        emit SubmitTransaction(msg.sender, txIndex, _to, _value, _data, _addressToken, msg.sender, false);\r\n    }\r\n\r\n    function confirmTransaction(uint _txIndex)\r\n    public\r\n    onlyOwner\r\n    txExists(_txIndex)\r\n    notExecuted(_txIndex)\r\n    notConfirmed(_txIndex)\r\n    notCancel(_txIndex)\r\n    {\r\n        Transaction storage transaction = transactions[_txIndex];\r\n        transaction.numConfirmations += 1;\r\n        isConfirmed[_txIndex][msg.sender] = true;\r\n\r\n        emit ConfirmTransaction(msg.sender, _txIndex);\r\n    }\r\n\r\n    function executeTransaction(uint _txIndex)\r\n    public\r\n    onlyOwner\r\n    txExists(_txIndex)\r\n    notExecuted(_txIndex)\r\n    notCancel(_txIndex)\r\n    {\r\n        Transaction storage transaction = transactions[_txIndex];\r\n\r\n        require(\r\n            transaction.numConfirmations >= numConfirmationsRequired,\r\n            \"cannot execute tx\"\r\n        );\r\n\r\n        transaction.executed = true;\r\n\r\n        Token(transaction.addressToken).transfer(transaction.to, transaction.value);\r\n\r\n        emit ExecuteTransaction(msg.sender, _txIndex);\r\n    }\r\n\r\n    function cancelTransaction(uint _txIndex) public txExists(_txIndex) notExecuted(_txIndex) notCancel(_txIndex) {\r\n        Transaction storage tran = transactions[_txIndex];\r\n        require(tran.by == msg.sender, 'not creator transaction');\r\n        tran.cancel = true;\r\n        emit CancelTransaction(msg.sender, _txIndex);\r\n\r\n    }\r\n\r\n    function revokeConfirmation(uint _txIndex)\r\n    public\r\n    onlyOwner\r\n    txExists(_txIndex)\r\n    notExecuted(_txIndex)\r\n    notCancel(_txIndex)\r\n    {\r\n        Transaction storage transaction = transactions[_txIndex];\r\n\r\n        require(isConfirmed[_txIndex][msg.sender], \"tx not confirmed\");\r\n\r\n        transaction.numConfirmations -= 1;\r\n        isConfirmed[_txIndex][msg.sender] = false;\r\n\r\n        emit RevokeConfirmation(msg.sender, _txIndex);\r\n    }\r\n\r\n    function getTokenCount() public view returns (uint){\r\n        return token.length;\r\n    }\r\n\r\n    function getOwners() public view returns (address[] memory) {\r\n        return owners;\r\n    }\r\n\r\n    function getTokens() public view returns (Token[] memory) {\r\n        return token;\r\n    }\r\n\r\n    function getTransactionCount() public view returns (uint) {\r\n        return transactions.length;\r\n    }\r\n\r\n    function getTransaction(uint _txIndex)\r\n    public\r\n    view\r\n    returns (\r\n        address to,\r\n        uint value,\r\n        bytes memory data,\r\n        bool executed,\r\n        uint numConfirmations,\r\n        address addressToken,\r\n        address by,\r\n        bool cancel\r\n    )\r\n    {\r\n        Transaction storage transaction = transactions[_txIndex];\r\n\r\n        return (\r\n        transaction.to,\r\n        transaction.value,\r\n        transaction.data,\r\n        transaction.executed,\r\n        transaction.numConfirmations,\r\n        transaction.addressToken,\r\n        transaction.by,\r\n        transaction.cancel\r\n        );\r\n    }\r\n}\r\n",
  "sourcePath": "D:\\20212\\solidity-multi-sig-wallet\\contracts\\MultiSigWallet.sol",
  "compiler": {
    "name": "solc",
    "version": "0.8.15+commit.e14f2714.Emscripten.clang"
  },
  "schemaVersion": "3.4.4",
  "updatedAt": "2022-07-11T20:38:14.118Z",
  "networkType": "ethereum",
  "devdoc": {
    "kind": "dev",
    "methods": {},
    "version": 1
  },
  "userdoc": {
    "kind": "user",
    "methods": {},
    "version": 1
  }
}